:020000003BC003
:10000200FECFFDCFFCCFFBCFFACFF9CFF8CFF7CFA2
:10001200F6CFF5CFF4CFF3CFF2CFF1CFF0CFEFCFD2
:10002200EECFEDCF01000200030004000500060040
:10003200070008000B000C000D000E000F0010005E
:1000420011001200150016001700180019001A00FE
:100052001B001C001F00200021002200230024009E
:10006200250026001027E80364000A0001000010A2
:10007200000110000100F894EE27ECBBF1E0FBBF99
:10008200EBBFE5BF8DE0A2E0BB27ED938A95E9F7D0
:1000920080E094E0A0E6ED930197E9F7EFE5EDBF8C
:1000A200E4E0EEBFC0E6D1E000C06ED023D0E13084
:1000B200A0E0FA07E9F434D078D0E0936001F0933D
:1000C20061016093620170936301A0916001B0913C
:1000D20061018091620190916301A031E0E0BE076D
:1000E200E0E08E07E0E09E0710F0AC9A01C0AC9809
:1000F200DDCFFFCF63D000E010E0E0E0E8BBE3B388
:10010200EF700E2F1127EFE0F0E0E017F10719F082
:10011200E1E0F0E002C0E0E0F0E009911991089519
:1001220049D010E000E030E020E051E041E030E072
:10013200383028F5EFEFE8BBE8B3AE2FE52FE095B6
:10014200EA23E8BB550F41E020E02430B0F4E3B3EA
:10015200EF701E2FE42FE12369F4E22FF0E01CD0B0
:10016200EA5DFF4FDF01E32FF0E0EE0FFF1FEA0F22
:10017200FB1F0491440F2F5FE8CF3F5FD9CFE02FE1
:10018200F0E01FD026960895E7B3EF6FE7BBE5B323
:10019200EF60E5BBA49A0895EE0FFF1FEE0FFF1F5D
:1001A200EE0FFF1FEE0FFF1F08956F2F660F660BF6
:1001B200762F08955A934A933A932A931A930A935D
:1001C20008955D814C813B812A81198108810895BE
:00000001FF
